{"abi":[{"type":"constructor","inputs":[],"stateMutability":"nonpayable"},{"type":"function","name":"UPGRADE_INTERFACE_VERSION","inputs":[],"outputs":[{"name":"","type":"string","internalType":"string"}],"stateMutability":"view"},{"type":"function","name":"getValue","inputs":[],"outputs":[{"name":"","type":"uint256","internalType":"uint256"}],"stateMutability":"view"},{"type":"function","name":"initialize","inputs":[],"outputs":[],"stateMutability":"nonpayable"},{"type":"function","name":"owner","inputs":[],"outputs":[{"name":"","type":"address","internalType":"address"}],"stateMutability":"view"},{"type":"function","name":"proxiableUUID","inputs":[],"outputs":[{"name":"","type":"bytes32","internalType":"bytes32"}],"stateMutability":"view"},{"type":"function","name":"renounceOwnership","inputs":[],"outputs":[],"stateMutability":"nonpayable"},{"type":"function","name":"setValue","inputs":[{"name":"newValue","type":"uint256","internalType":"uint256"}],"outputs":[],"stateMutability":"nonpayable"},{"type":"function","name":"transferOwnership","inputs":[{"name":"newOwner","type":"address","internalType":"address"}],"outputs":[],"stateMutability":"nonpayable"},{"type":"function","name":"upgradeToAndCall","inputs":[{"name":"newImplementation","type":"address","internalType":"address"},{"name":"data","type":"bytes","internalType":"bytes"}],"outputs":[],"stateMutability":"payable"},{"type":"function","name":"version","inputs":[],"outputs":[{"name":"","type":"uint256","internalType":"uint256"}],"stateMutability":"pure"},{"type":"event","name":"Initialized","inputs":[{"name":"version","type":"uint64","indexed":false,"internalType":"uint64"}],"anonymous":false},{"type":"event","name":"OwnershipTransferred","inputs":[{"name":"previousOwner","type":"address","indexed":true,"internalType":"address"},{"name":"newOwner","type":"address","indexed":true,"internalType":"address"}],"anonymous":false},{"type":"event","name":"Upgraded","inputs":[{"name":"implementation","type":"address","indexed":true,"internalType":"address"}],"anonymous":false},{"type":"error","name":"AddressEmptyCode","inputs":[{"name":"target","type":"address","internalType":"address"}]},{"type":"error","name":"ERC1967InvalidImplementation","inputs":[{"name":"implementation","type":"address","internalType":"address"}]},{"type":"error","name":"ERC1967NonPayable","inputs":[]},{"type":"error","name":"FailedInnerCall","inputs":[]},{"type":"error","name":"InvalidInitialization","inputs":[]},{"type":"error","name":"NotInitializing","inputs":[]},{"type":"error","name":"OwnableInvalidOwner","inputs":[{"name":"owner","type":"address","internalType":"address"}]},{"type":"error","name":"OwnableUnauthorizedAccount","inputs":[{"name":"account","type":"address","internalType":"address"}]},{"type":"error","name":"UUPSUnauthorizedCallContext","inputs":[]},{"type":"error","name":"UUPSUnsupportedProxiableUUID","inputs":[{"name":"slot","type":"bytes32","internalType":"bytes32"}]}],"bytecode":{"object":"0x60a06040523060805234801561001457600080fd5b5061001d610022565b6100d4565b7ff0c57e16840df040f15088dc2f81fe391c3923bec73e23a9662efc9c229c6a00805468010000000000000000900460ff16156100725760405163f92ee8a960e01b815260040160405180910390fd5b80546001600160401b03908116146100d15780546001600160401b0319166001600160401b0390811782556040519081527fc7f505b2f371ae2175ee4913f4499e1f2633a7b5936321eed1cdaeb6115181d29060200160405180910390a15b50565b608051610a2e6100fd6000396000818161038a015281816103b301526104f10152610a2e6000f3fe6080604052600436106100915760003560e01c8063715018a611610059578063715018a6146101185780638129fc1c1461012d5780638da5cb5b14610142578063ad3cb1cc14610189578063f2fde38b146101c757600080fd5b806320965255146100965780634f1ef286146100ba57806352d1902d146100cf57806354fd4d50146100e457806355241077146100f8575b600080fd5b3480156100a257600080fd5b506000545b6040519081526020015b60405180910390f35b6100cd6100c8366004610856565b6101e7565b005b3480156100db57600080fd5b506100a76101fd565b3480156100f057600080fd5b5060026100a7565b34801561010457600080fd5b506100cd610113366004610918565b600055565b34801561012457600080fd5b506100cd61021a565b34801561013957600080fd5b506100cd61022e565b34801561014e57600080fd5b507f9016d09d72d40fdae2fd8ceac6b6234c7706214fd39c1cd1e609a0528c199300546040516001600160a01b0390911681526020016100b1565b34801561019557600080fd5b506101ba604051806040016040528060058152602001640352e302e360dc1b81525081565b6040516100b19190610955565b3480156101d357600080fd5b506100cd6101e2366004610988565b61033c565b6101ef61037f565b6101f98282610424565b5050565b60006102076104e6565b506000805160206109d983398151915290565b61022261052f565b61022c600061058a565b565b7ff0c57e16840df040f15088dc2f81fe391c3923bec73e23a9662efc9c229c6a008054600160401b810460ff16159067ffffffffffffffff166000811580156102745750825b905060008267ffffffffffffffff1660011480156102915750303b155b90508115801561029f575080155b156102bd5760405163f92ee8a960e01b815260040160405180910390fd5b845467ffffffffffffffff1916600117855583156102e757845460ff60401b1916600160401b1785555b6102ef6105fb565b831561033557845460ff60401b19168555604051600181527fc7f505b2f371ae2175ee4913f4499e1f2633a7b5936321eed1cdaeb6115181d29060200160405180910390a15b5050505050565b61034461052f565b6001600160a01b03811661037357604051631e4fbdf760e01b8152600060048201526024015b60405180910390fd5b61037c8161058a565b50565b306001600160a01b037f000000000000000000000000000000000000000000000000000000000000000016148061040657507f00000000000000000000000000000000000000000000000000000000000000006001600160a01b03166103fa6000805160206109d9833981519152546001600160a01b031690565b6001600160a01b031614155b1561022c5760405163703e46dd60e11b815260040160405180910390fd5b816001600160a01b03166352d1902d6040518163ffffffff1660e01b8152600401602060405180830381865afa92505050801561047e575060408051601f3d908101601f1916820190925261047b918101906109a3565b60015b6104a657604051634c9c8ce360e01b81526001600160a01b038316600482015260240161036a565b6000805160206109d983398151915281146104d757604051632a87526960e21b81526004810182905260240161036a565b6104e18383610603565b505050565b306001600160a01b037f0000000000000000000000000000000000000000000000000000000000000000161461022c5760405163703e46dd60e11b815260040160405180910390fd5b336105617f9016d09d72d40fdae2fd8ceac6b6234c7706214fd39c1cd1e609a0528c199300546001600160a01b031690565b6001600160a01b03161461022c5760405163118cdaa760e01b815233600482015260240161036a565b7f9016d09d72d40fdae2fd8ceac6b6234c7706214fd39c1cd1e609a0528c19930080546001600160a01b031981166001600160a01b03848116918217845560405192169182907f8be0079c531659141344cd1fd0a4f28419497f9722a3daafe3b4186f6b6457e090600090a3505050565b61022c610659565b61060c826106a2565b6040516001600160a01b038316907fbc7cd75a20ee27fd9adebab32041f755214dbc6bffa90cc0225b39da2e5c2d3b90600090a2805115610651576104e18282610707565b6101f961077d565b7ff0c57e16840df040f15088dc2f81fe391c3923bec73e23a9662efc9c229c6a0054600160401b900460ff1661022c57604051631afcd79f60e31b815260040160405180910390fd5b806001600160a01b03163b6000036106d857604051634c9c8ce360e01b81526001600160a01b038216600482015260240161036a565b6000805160206109d983398151915280546001600160a01b0319166001600160a01b0392909216919091179055565b6060600080846001600160a01b03168460405161072491906109bc565b600060405180830381855af49150503d806000811461075f576040519150601f19603f3d011682016040523d82523d6000602084013e610764565b606091505b509150915061077485838361079c565b95945050505050565b341561022c5760405163b398979f60e01b815260040160405180910390fd5b6060826107b1576107ac826107fb565b6107f4565b81511580156107c857506001600160a01b0384163b155b156107f157604051639996b31560e01b81526001600160a01b038516600482015260240161036a565b50805b9392505050565b80511561080b5780518082602001fd5b604051630a12f52160e11b815260040160405180910390fd5b80356001600160a01b038116811461083b57600080fd5b919050565b634e487b7160e01b600052604160045260246000fd5b6000806040838503121561086957600080fd5b61087283610824565b9150602083013567ffffffffffffffff8082111561088f57600080fd5b818501915085601f8301126108a357600080fd5b8135818111156108b5576108b5610840565b604051601f8201601f19908116603f011681019083821181831017156108dd576108dd610840565b816040528281528860208487010111156108f657600080fd5b8260208601602083013760006020848301015280955050505050509250929050565b60006020828403121561092a57600080fd5b5035919050565b60005b8381101561094c578181015183820152602001610934565b50506000910152565b6020815260008251806020840152610974816040850160208701610931565b601f01601f19169190910160400192915050565b60006020828403121561099a57600080fd5b6107f482610824565b6000602082840312156109b557600080fd5b5051919050565b600082516109ce818460208701610931565b919091019291505056fe360894a13ba1a3210667c828492db98dca3e2076cc3735a920a3ca505d382bbca2646970667358221220a661fa6a5232914fd405b1368b16121871373f9d96f8bd874e716dc543a25a6364736f6c63430008140033","linkReferences":{}},"methodIdentifiers":{"UPGRADE_INTERFACE_VERSION()":"ad3cb1cc","getValue()":"20965255","initialize()":"8129fc1c","owner()":"8da5cb5b","proxiableUUID()":"52d1902d","renounceOwnership()":"715018a6","setValue(uint256)":"55241077","transferOwnership(address)":"f2fde38b","upgradeToAndCall(address,bytes)":"4f1ef286","version()":"54fd4d50"},"id":37}