{"abi":[{"type":"constructor","inputs":[],"stateMutability":"nonpayable"},{"type":"function","name":"UPGRADE_INTERFACE_VERSION","inputs":[],"outputs":[{"name":"","type":"string","internalType":"string"}],"stateMutability":"view"},{"type":"function","name":"getValue","inputs":[],"outputs":[{"name":"","type":"uint256","internalType":"uint256"}],"stateMutability":"view"},{"type":"function","name":"initialize","inputs":[],"outputs":[],"stateMutability":"nonpayable"},{"type":"function","name":"owner","inputs":[],"outputs":[{"name":"","type":"address","internalType":"address"}],"stateMutability":"view"},{"type":"function","name":"proxiableUUID","inputs":[],"outputs":[{"name":"","type":"bytes32","internalType":"bytes32"}],"stateMutability":"view"},{"type":"function","name":"renounceOwnership","inputs":[],"outputs":[],"stateMutability":"nonpayable"},{"type":"function","name":"transferOwnership","inputs":[{"name":"newOwner","type":"address","internalType":"address"}],"outputs":[],"stateMutability":"nonpayable"},{"type":"function","name":"upgradeToAndCall","inputs":[{"name":"newImplementation","type":"address","internalType":"address"},{"name":"data","type":"bytes","internalType":"bytes"}],"outputs":[],"stateMutability":"payable"},{"type":"function","name":"version","inputs":[],"outputs":[{"name":"","type":"uint256","internalType":"uint256"}],"stateMutability":"pure"},{"type":"event","name":"Initialized","inputs":[{"name":"version","type":"uint64","indexed":false,"internalType":"uint64"}],"anonymous":false},{"type":"event","name":"OwnershipTransferred","inputs":[{"name":"previousOwner","type":"address","indexed":true,"internalType":"address"},{"name":"newOwner","type":"address","indexed":true,"internalType":"address"}],"anonymous":false},{"type":"event","name":"Upgraded","inputs":[{"name":"implementation","type":"address","indexed":true,"internalType":"address"}],"anonymous":false},{"type":"error","name":"AddressEmptyCode","inputs":[{"name":"target","type":"address","internalType":"address"}]},{"type":"error","name":"ERC1967InvalidImplementation","inputs":[{"name":"implementation","type":"address","internalType":"address"}]},{"type":"error","name":"ERC1967NonPayable","inputs":[]},{"type":"error","name":"FailedInnerCall","inputs":[]},{"type":"error","name":"InvalidInitialization","inputs":[]},{"type":"error","name":"NotInitializing","inputs":[]},{"type":"error","name":"OwnableInvalidOwner","inputs":[{"name":"owner","type":"address","internalType":"address"}]},{"type":"error","name":"OwnableUnauthorizedAccount","inputs":[{"name":"account","type":"address","internalType":"address"}]},{"type":"error","name":"UUPSUnauthorizedCallContext","inputs":[]},{"type":"error","name":"UUPSUnsupportedProxiableUUID","inputs":[{"name":"slot","type":"bytes32","internalType":"bytes32"}]}],"bytecode":{"object":"0x60a06040523060805234801561001457600080fd5b5061001d610022565b6100d4565b7ff0c57e16840df040f15088dc2f81fe391c3923bec73e23a9662efc9c229c6a00805468010000000000000000900460ff16156100725760405163f92ee8a960e01b815260040160405180910390fd5b80546001600160401b03908116146100d15780546001600160401b0319166001600160401b0390811782556040519081527fc7f505b2f371ae2175ee4913f4499e1f2633a7b5936321eed1cdaeb6115181d29060200160405180910390a15b50565b6080516109ea6100fd6000396000818161035f0152818161038801526104c601526109ea6000f3fe6080604052600436106100865760003560e01c8063715018a611610059578063715018a6146100ed5780638129fc1c146101025780638da5cb5b14610117578063ad3cb1cc1461015e578063f2fde38b1461019c57600080fd5b8063209652551461008b5780634f1ef286146100af57806352d1902d146100c457806354fd4d50146100d9575b600080fd5b34801561009757600080fd5b506000545b6040519081526020015b60405180910390f35b6100c26100bd36600461082b565b6101bc565b005b3480156100d057600080fd5b5061009c6101d2565b3480156100e557600080fd5b50600161009c565b3480156100f957600080fd5b506100c26101ef565b34801561010e57600080fd5b506100c2610203565b34801561012357600080fd5b507f9016d09d72d40fdae2fd8ceac6b6234c7706214fd39c1cd1e609a0528c199300546040516001600160a01b0390911681526020016100a6565b34801561016a57600080fd5b5061018f604051806040016040528060058152602001640352e302e360dc1b81525081565b6040516100a69190610911565b3480156101a857600080fd5b506100c26101b7366004610944565b610311565b6101c4610354565b6101ce82826103f9565b5050565b60006101dc6104bb565b5060008051602061099583398151915290565b6101f7610504565b610201600061055f565b565b7ff0c57e16840df040f15088dc2f81fe391c3923bec73e23a9662efc9c229c6a008054600160401b810460ff16159067ffffffffffffffff166000811580156102495750825b905060008267ffffffffffffffff1660011480156102665750303b155b905081158015610274575080155b156102925760405163f92ee8a960e01b815260040160405180910390fd5b845467ffffffffffffffff1916600117855583156102bc57845460ff60401b1916600160401b1785555b6102c46105d0565b831561030a57845460ff60401b19168555604051600181527fc7f505b2f371ae2175ee4913f4499e1f2633a7b5936321eed1cdaeb6115181d29060200160405180910390a15b5050505050565b610319610504565b6001600160a01b03811661034857604051631e4fbdf760e01b8152600060048201526024015b60405180910390fd5b6103518161055f565b50565b306001600160a01b037f00000000000000000000000000000000000000000000000000000000000000001614806103db57507f00000000000000000000000000000000000000000000000000000000000000006001600160a01b03166103cf600080516020610995833981519152546001600160a01b031690565b6001600160a01b031614155b156102015760405163703e46dd60e11b815260040160405180910390fd5b816001600160a01b03166352d1902d6040518163ffffffff1660e01b8152600401602060405180830381865afa925050508015610453575060408051601f3d908101601f191682019092526104509181019061095f565b60015b61047b57604051634c9c8ce360e01b81526001600160a01b038316600482015260240161033f565b60008051602061099583398151915281146104ac57604051632a87526960e21b81526004810182905260240161033f565b6104b683836105d8565b505050565b306001600160a01b037f000000000000000000000000000000000000000000000000000000000000000016146102015760405163703e46dd60e11b815260040160405180910390fd5b336105367f9016d09d72d40fdae2fd8ceac6b6234c7706214fd39c1cd1e609a0528c199300546001600160a01b031690565b6001600160a01b0316146102015760405163118cdaa760e01b815233600482015260240161033f565b7f9016d09d72d40fdae2fd8ceac6b6234c7706214fd39c1cd1e609a0528c19930080546001600160a01b031981166001600160a01b03848116918217845560405192169182907f8be0079c531659141344cd1fd0a4f28419497f9722a3daafe3b4186f6b6457e090600090a3505050565b61020161062e565b6105e182610677565b6040516001600160a01b038316907fbc7cd75a20ee27fd9adebab32041f755214dbc6bffa90cc0225b39da2e5c2d3b90600090a2805115610626576104b682826106dc565b6101ce610752565b7ff0c57e16840df040f15088dc2f81fe391c3923bec73e23a9662efc9c229c6a0054600160401b900460ff1661020157604051631afcd79f60e31b815260040160405180910390fd5b806001600160a01b03163b6000036106ad57604051634c9c8ce360e01b81526001600160a01b038216600482015260240161033f565b60008051602061099583398151915280546001600160a01b0319166001600160a01b0392909216919091179055565b6060600080846001600160a01b0316846040516106f99190610978565b600060405180830381855af49150503d8060008114610734576040519150601f19603f3d011682016040523d82523d6000602084013e610739565b606091505b5091509150610749858383610771565b95945050505050565b34156102015760405163b398979f60e01b815260040160405180910390fd5b60608261078657610781826107d0565b6107c9565b815115801561079d57506001600160a01b0384163b155b156107c657604051639996b31560e01b81526001600160a01b038516600482015260240161033f565b50805b9392505050565b8051156107e05780518082602001fd5b604051630a12f52160e11b815260040160405180910390fd5b80356001600160a01b038116811461081057600080fd5b919050565b634e487b7160e01b600052604160045260246000fd5b6000806040838503121561083e57600080fd5b610847836107f9565b9150602083013567ffffffffffffffff8082111561086457600080fd5b818501915085601f83011261087857600080fd5b81358181111561088a5761088a610815565b604051601f8201601f19908116603f011681019083821181831017156108b2576108b2610815565b816040528281528860208487010111156108cb57600080fd5b8260208601602083013760006020848301015280955050505050509250929050565b60005b838110156109085781810151838201526020016108f0565b50506000910152565b60208152600082518060208401526109308160408501602087016108ed565b601f01601f19169190910160400192915050565b60006020828403121561095657600080fd5b6107c9826107f9565b60006020828403121561097157600080fd5b5051919050565b6000825161098a8184602087016108ed565b919091019291505056fe360894a13ba1a3210667c828492db98dca3e2076cc3735a920a3ca505d382bbca26469706673582212200ef3f7b55731f78a5d6ccae57e735e2447d5c8295c22d2561e5757358f2183a364736f6c63430008140033","linkReferences":{}},"methodIdentifiers":{"UPGRADE_INTERFACE_VERSION()":"ad3cb1cc","getValue()":"20965255","initialize()":"8129fc1c","owner()":"8da5cb5b","proxiableUUID()":"52d1902d","renounceOwnership()":"715018a6","transferOwnership(address)":"f2fde38b","upgradeToAndCall(address,bytes)":"4f1ef286","version()":"54fd4d50"},"id":36}